:1040000031400039B240805A20013F4000000F93F8
:1040100005242F839F4F76430011FB233F40380038
:104020000F9304241F83CF430011FC2330404E40E4
:104030003040344000132183814F00002F410E4F48
:104040003E53814E00000F93F923215330413140FC
:104050000039B240805A2001B0128A41B0122A4180
:104060007F407000B0120A4143124C433D40EA4089
:104070003E4000020F43B012804243125C433D4079
:10408000CA403E4000040F43B012804243126C43CA
:104090003D40AA403E4000060F43B012804232D25B
:1040A0003150060032C0D000FD3F5E437F4010001B
:1040B000B01214413F40204E0E4F3F530E93FC234D
:1040C0007F401000B012144130415E437F40200019
:1040D000B01214413F4010270E4F3F530E93FC2364
:1040E0007F402000B012144130415E437F404000C9
:1040F000B01214413F4010270E4F3F530E93FC2344
:104100007F404000B01214413041C2DF3200C2DFB4
:10411000310030414E930324C2CF31003041C2DF21
:1041200031003041C2EF31003041B2400401600142
:10413000B24020007201B24010006201B2D0100003
:10414000600130415F4200114E4FDE4231000211EA
:104150005F53C24F0011F2D07000310030415F4216
:1041600000117F53C24F00117FF33F500211E24F05
:10417000310030410F4232C230417FF30F5F0F5F99
:104180000F5F0F5F3F50081130413F402F11CF4369
:1041900000000E4F3E53CE4300006E4E7EF38F4E16
:1041A0000100CF43F0FF0E4F3E50EFFFEE4F0000F7
:1041B0006E4E7EF38F4EF1FFCF43E0FF0E4F3E5029
:1041C000DFFFEE4F00006E4E7EF38F4EE1FFF240B8
:1041D00003000611C243071130417F9003000228FB
:1041E0005F4330417FF30F5F1F530F5F0F5F0F5F20
:1041F0008F4308114F4330410B120A124E436F4355
:10420000B01214415A420611C2430611233C5F42C8
:104210000611B0127A410B4F163C5F53CB4F07008B
:10422000BBB0400008000D245E436F43B012144140
:1042300032D29B120A0032C24E436F43B012144175
:10424000023CCB4F06005F4B0700CB9F0600E523E7
:10425000D2530611C29A0611DA2B5E436F43B01295
:1042600014413A413B4130410B120B4FC2930711AD
:1042700004243FB20224B012F841024B3B413041CA
:104280000B120A1209125B4108007C9003000228FD
:104290005B432A3C094232C27CF30C5C0C5C0C5C34
:1042A0000C5C3C5008111A4C08000A9302246B4322
:1042B000183C8C4F00008C4E0200CC4A0700CC4AC0
:1042C00006008C4D0A000E9A01246BD30F93022036
:1042D0000E9F01246BD27BD040007BF38C4B0800F7
:1042E0004B430F49B01268424F4B39413A413B4171
:1042F00030410F120E120D120C120B12B01244416B
:104300004E436F42B01214413F4008114E43AFB2CA
:10431000080018242D4F0C4D3C538F4C00000D937A
:104320001120DF5306001C4F02003C538F4C00004D
:104330005C4207115B4206114E9B012C5D534DDC24
:10434000C24D07115E533F5010007E900300DF23E3
:104350006E836F42B0121441C29307110424B0124D
:10436000F841C2430711B0125E413B413C413D411F
:064370003E413F41001335
:10FFE000304030403040304030403040F2423040CD
:10FFF00030403040304030403040304030400040B1
:0400000300004000B9
:00000001FF
